:100000000C945D000C947A000C947A000C947A00A5
:100010000C947A000C947A000C947A000C947A0078
:100020000C947A000C947A000C947A000C947A0068
:100030000C947A000C947A000C947A000C947A0058
:100040000C9449040C947A000C947A000C947A0075
:100050000C947A000C947A000C947A000C947A0038
:100060000C947A000C947A00000000080002010051
:100070000003040700000000000000000000000072
:10008000250028002B0000000000240027002A0083
:10009000040404040404040402020202020203032E
:1000A0000303030301020408102040800102040836
:1000B00010200102040810203B0511241FBECFEFC1
:1000C000D8E0DEBFCDBF21E0A0E0B1E001C01D92CD
:1000D000A436B207E1F710E0CDE5D0E004C02197E7
:1000E000FE010E94DE05CC35D107C9F70E949304BA
:1000F0000C94F3050C94000090E0FC01EC55FF4FCC
:100100002491FC01E057FF4F8491882399F090E0FF
:10011000880F991FFC01EA57FF4FA591B491FC018C
:10012000E458FF4F859194918FB7F894EC91E22BAE
:10013000EC938FBF08958E3008F08E5087708064E6
:1001400080937C0080917A00806480937A00809113
:100150007A0086FDFCCF809178002091790090E0B4
:10016000922B089590E0FC01E859FF4F3491FC0177
:10017000EC55FF4F2491FC01E057FF4FE491EE2333
:1001800009F43BC0332339F1333091F038F4313086
:10019000A9F0323001F584B58F7D12C0373091F06F
:1001A0003830A1F03430B9F4809180008F7D03C0E5
:1001B000809180008F77809380000DC084B58F7709
:1001C00084BD09C08091B0008F7703C08091B000DA
:1001D0008F7D8093B000F0E0EE0FFF1FE458FF4FDB
:1001E000A591B4918FB7F894EC91611103C020955B
:1001F0002E2301C02E2B2C938FBF08953FB7F89468
:1002000080911C0190911D01A0911E01B0911F01D0
:1002100026B5A89B05C02F3F19F00196A11DB11D61
:100220003FBFBA2FA92F982F8827820F911DA11D9C
:10023000B11DBC01CD0142E0660F771F881F991FD9
:100240004A95D1F7089560930C0170930D01809346
:100250000E0190930F01DC01CB01845D9E4FAF4FE7
:10026000BF4F8093080190930901A0930A01B093B6
:100270000B0182E090E090930701809306012FB775
:10028000F8948091180190911901A0911A01B091F0
:100290001B012FBF8093020190930301A0930401DF
:1002A000B093050108950F931F938FB7F8940091B1
:1002B00018011091190120911A0130911B018FBF73
:1002C0004091020150910301609104017091050178
:1002D000041B150B260B370B80910C0190910D011F
:1002E000A0910E01B0910F01083E13402105310588
:1002F000C0F00196A11DB11D80930C0190930D01DA
:10030000A0930E01B0930F0148515C4F6F4F7F4F88
:10031000409302015093030160930401709305011F
:10032000C4CF409108015091090160910A01709178
:100330000B0184179507A607B70788F1E091000124
:10034000F0910101309759F1099561157105810509
:10035000910519F00E94230122C080910C01909117
:100360000D01A0910E01B0910F01845D9E4FAF4F22
:10037000BF4F8093080190930901A0930A01B093A5
:100380000B0181E090E02091060130910701232BC1
:1003900011F480E090E09093070180930601609152
:1003A0000C0170910D0180910E0190910F011F9130
:1003B0000F9108953F924F925F926F927F928F922A
:1003C0009F92AF92BF92CF92DF92EF92FF920F93E4
:1003D0001F93CF93DF93CDB7DEB72A970FB6F8946C
:1003E000DEBF0FBECDBF6B017C010E9453016115C2
:1003F000724E8F4D914008F44DC000E010E09BE03C
:10040000302E909FF001919FF00D1124DF01A65D29
:10041000BE4F8C918F70C1F5E05EFE4F8DE394E08E
:10042000918380838C91807D83608C93C282D38200
:10043000E482F5828F7031F1815F8F70823028F411
:10044000CD28CE28CF2809F4A2C12BE0209FC001DF
:10045000219F900D1124AC01405E5E4F5A87498761
:10046000DA012D913C911197232B09F490C1FC01E5
:10047000E65DFE4F7F018081806180831A968C91BA
:1004800084FD0AC0832D8FC10F5F1F4F06301105F9
:1004900009F0B6CF8FEF87C10E9453014B015C0179
:1004A000D7018C919EE0980F9F70933008F055C152
:1004B000E985FA85468157816085718584169506A0
:1004C000A606B70608F449C192859F70923049F498
:1004D00082819381A481B58186839783A087B18728
:1004E0003CC1933009F066C0A985BA851296CD90BB
:1004F000DD90ED90FC9015970E94530120E8422E6C
:1005000021E5522E66246394712CA30192010E946E
:100510009D0560E871E581E090E00E947905C60ED6
:10052000D71EE81EF91EA985BA8512962D913D9118
:100530004D915C91159729833A834B835C83C50168
:10054000B401A30192010E949D058C149D04AE0488
:10055000BF04C8F02F5F3F4F4F4F5F4F60E871E51A
:1005600081E090E00E94790549805A806B807C8010
:10057000460E571E681E791EE985FA854682578207
:1005800060867186EAC060E871E581E090E00E94D3
:10059000790549805A806B807C80460E571E681E04
:1005A000791EA985BA8516964D925D926D927C92C0
:1005B0001997D3C0943009F0CDC0E985FA854280FF
:1005C0005380648075800E94530169837A838B8392
:1005D0009C830E9453016D837E838F8398870E9442
:1005E00053016B017C0129813A814B815C81240D8F
:1005F000351D461D571D29833A834B835C8380E854
:10060000482E81E5582E66246394712C6D817E817D
:100610008F819885A30192010E949D0529813A81CD
:100620004B815C81261B370B480B590B29833A837E
:100630004B835C83C701B601A30192010E949D0513
:10064000CA01B9016C5F7F4F8F4F9F4F27E030E0A9
:1006500040E050E00E949D059B01AC0160E871E51F
:1006600081E090E00E94790529813A814B815C818B
:10067000261B370B480B590BE985FA85C280D380BE
:10068000E480F58082169306A406B506B0F1F0E882
:10069000CF0EFAE3DF1EF9E0EF1EF11CC80CD91CE7
:1006A000EA1CFB1CC501B401A30192010E949D0537
:1006B000C61AD70AE80AF90ACA01B9016C5F7F4F66
:1006C0008F4F9F4F27E030E040E050E00E949D05B3
:1006D0009B01AC0160E871E581E090E00E94790542
:1006E000C61AD70AE80AF90AA985BA851696CD92DC
:1006F000DD92ED92FC92199730C0C80CD91CEA1C0F
:10070000FB1CC501B401A30192010E949D05C61AFC
:10071000D70AE80AF90ACA01B9016C5F7F4F8F4F07
:100720009F4F27E030E040E050E00E949D059B0194
:10073000AC0160E871E581E090E00E947905C61A9D
:10074000D70AE80AF90AE985FA85C682D782E086DF
:10075000F18603C08F7ED7018C938BE0809FF001E0
:10076000819FF00D1124E05EFE4F82858F708130F5
:1007700009F088CE82819381A481B581880D991D6D
:10078000AA1DBB1D86839783A087B1877BCE8BE094
:10079000809FF001819FF00D1124E65DFE4F808166
:1007A0008F7E80836FCE2A960FB6F894DEBF0FBE81
:1007B000CDBFDF91CF911F910F91FF90EF90DF9010
:1007C000CF90BF90AF909F908F907F906F905F90F1
:1007D0004F903F9008958F929F92AF92BF92CF9289
:1007E000DF92EF92FF926C0161E08CE00E94B20018
:1007F00083E00E947C0061E083E00E94B2000D2C47
:10080000000CEE08FF080E94FE004B015C01C114C1
:10081000D104E104F104F1F00E94FE00DC01CB01FF
:1008200088199909AA09BB09883E9340A105B10519
:1008300070F321E0C21AD108E108F10888EE880EB1
:1008400083E0981EA11CB11CC114D104E104F10481
:1008500019F7DDCF60E08CE00E94B20083E00E94D7
:100860007C0060E083E0FF90EF90DF90CF90BF903E
:10087000AF909F908F900C94B20085E00E949B00F7
:100880002EE1AC01249FC001259F900D11240C94F2
:10089000EB031F920F920FB60F9211242F933F93E9
:1008A0008F939F93AF93BF938091180190911901FB
:1008B000A0911A01B0911B013091170123E0230F81
:1008C0002D3720F40196A11DB11D05C026E8230F88
:1008D0000296A11DB11D20931701809318019093DA
:1008E0001901A0931A01B0931B0180911C019091F2
:1008F0001D01A0911E01B0911F010196A11DB11D06
:1009000080931C0190931D01A0931E01B0931F01C1
:10091000BF91AF919F918F913F912F910F900FBEFB
:100920000F901F901895789484B5826084BD84B52B
:10093000816084BD85B5826085BD85B5816085BDDA
:1009400080916E00816080936E0010928100809192
:10095000810082608093810080918100816080931A
:100960008100809180008160809380008091B1003F
:1009700084608093B1008091B00081608093B0006A
:1009800080917A00846080937A0080917A008260FE
:1009900080937A0080917A00816080937A008091C0
:1009A0007A00806880937A001092C1008EE1809373
:1009B000160181E0809315018093140110921201B9
:1009C000109211018093100122EB37E0C12C89E0D5
:1009D000D82E84E6E82E88E3F82EE4E6F0E0C0E9BD
:1009E000D1E0C90183709927892B99F4C901BF010E
:1009F0000E948905892B31F4C901BE010E94890535
:100A0000892B39F440E8C40E41E5D41E41E0E41ED0
:100A1000F11C2F5F3F4F203D57E0350711F7C7010D
:100A2000B6016F5F7F4F8F4F9F4F0E94230183E07E
:100A30000E947C008CE00E947C0060E070E0CB01B2
:100A40000E94DA0160EC78EA80E090E00E94DA012E
:100A500085E00E949B002EE1AC01249FC001259FF0
:100A6000900D11240E94EB03C0E0D0E02097F1F339
:100A70000E940000FBCFA0E2B1E0FD018285807CF6
:100A80008287168217821086118612821382148240
:100A90001582118210823B9681E0E236F80771F7E9
:100AA0001092620120E030E09BE0929FF001939F62
:100AB000F00D1124E65DFE4F8081482F4F7039F410
:100AC0002F5F3F4F1B962630310579F70895807EC2
:100AD000808311961C921E9212961D921D921D9259
:100AE0001C92159716961D921D921D921C92199795
:100AF000E7CFDB018F939F930E94BF05BF91AF911A
:100B0000A29F800D911DA39F900DB29F900D112467
:100B1000089597FB072E16F4009407D077FD09D0AF
:100B20000E94CA0507FC05D03EF4909581959F4F21
:100B30000895709561957F4F0895A1E21A2EAA1B22
:100B4000BB1BFD010DC0AA1FBB1FEE1FFF1FA2177D
:100B5000B307E407F50720F0A21BB30BE40BF50B7A
:100B6000661F771F881F991F1A9469F76095709503
:100B7000809590959B01AC01BD01CF0108950E9425
:100B8000E405A59F900DB49F900DA49F800D911D2D
:100B900011240895AA1BBB1B51E107C0AA1FBB1F4C
:100BA000A617B70710F0A61BB70B881F991F5A95F9
:100BB000A9F780959095BC01CD010895EE0FFF1F18
:100BC0000590F491E02D0994A29FB001B39FC0015C
:100BD000A39F700D811D1124911DB29F700D811D69
:0A0BE0001124911D0895F894FFCF31
:00000001FF
